

Microchip MPLAB XC8 Assembler V2.30 build 20200825195618 
                                                                                               Tue Sep 22 22:34:29 2020

Microchip MPLAB XC8 C Compiler v2.30 (Free license) build 20200825195618 Og1 
     1                           	processor	18LF4685
     2                           	fnconf	rparam,??,?,0
     3                           	pagewidth 120
     4                           	opt	flic
     5                           	psect	cinit,global,reloc=2,class=CODE,delta=1
     6                           	psect	cstackCOMRAM,global,class=COMRAM,space=1,delta=1,lowdata,noexec
     7                           	psect	text0,global,reloc=2,class=CODE,delta=1
     8                           	psect	intsave_regs,global,class=BIGRAM,space=1,delta=1,noexec
     9                           	psect	rparam,global,class=COMRAM,space=1,delta=1,noexec
    10                           	psect	idloc,global,abs,ovrld,class=IDLOC,space=5,delta=1,noexec
    11                           	psect	config,global,abs,ovrld,class=CONFIG,space=4,delta=1,noexec
    12  0000                     
    13                           ; Version 2.20
    14                           ; Generated 12/02/2020 GMT
    15                           ; 
    16                           ; Copyright © 2020, Microchip Technology Inc. and its subsidiaries ("Microchip")
    17                           ; All rights reserved.
    18                           ; 
    19                           ; This software is developed by Microchip Technology Inc. and its subsidiaries ("Microch
      +                          ip").
    20                           ; 
    21                           ; Redistribution and use in source and binary forms, with or without modification, are
    22                           ; permitted provided that the following conditions are met:
    23                           ; 
    24                           ;     1. Redistributions of source code must retain the above copyright notice, this lis
      +                          t of
    25                           ;        conditions and the following disclaimer.
    26                           ; 
    27                           ;     2. Redistributions in binary form must reproduce the above copyright notice, this 
      +                          list
    28                           ;        of conditions and the following disclaimer in the documentation and/or other
    29                           ;        materials provided with the distribution.
    30                           ; 
    31                           ;     3. Microchip's name may not be used to endorse or promote products derived from th
      +                          is
    32                           ;        software without specific prior written permission.
    33                           ; 
    34                           ; THIS SOFTWARE IS PROVIDED BY MICROCHIP "AS IS" AND ANY EXPRESS OR IMPLIED WARRANTIES,
    35                           ; INCLUDING, BUT NOT LIMITED TO, THE IMPLIED WARRANTIES OF MERCHANTABILITY AND FITNESS F
      +                          OR
    36                           ; PURPOSE ARE DISCLAIMED.  IN NO EVENT SHALL MICROCHIP BE LIABLE FOR ANY DIRECT, INDIREC
      +                          T,
    37                           ; INCIDENTAL, SPECIAL, EXEMPLARY, OR CONSEQUENTIAL DAMAGES (INCLUDING BUT NOT LIMITED TO
    38                           ; PROCUREMENT OF SUBSTITUTE GOODS OR SERVICES; LOSS OF USE, DATA OR PROFITS; OR BUSINESS
    39                           ; INTERRUPTION) HOWSOEVER CAUSED AND ON ANY THEORY OF LIABILITY, WHETHER IN CONTRACT, ST
      +                          RICT
    40                           ; LIABILITY, OR TORT (INCLUDING NEGLIGENCE OR OTHERWISE) ARISING IN ANY WAY OUT OF THE U
      +                          SE OF
    41                           ; THIS SOFTWARE, EVEN IF ADVISED OF THE POSSIBILITY OF SUCH DAMAGE.
    42                           ; 
    43                           ; 
    44                           ; Code-generator required, PIC18LF4685 Definitions
    45                           ; 
    46                           ; SFR Addresses
    47  0000                     _PORTBbits	set	3969
    48  0000                     _TRISBbits	set	3987
    49                           
    50                           ; #config settings
    51                           
    52                           	psect	cinit
    53  017FBA                     __pcinit:
    54                           	callstack 0
    55  017FBA                     start_initialization:
    56                           	callstack 0
    57  017FBA                     __initialization:
    58                           	callstack 0
    59  017FBA                     end_of_initialization:
    60                           	callstack 0
    61  017FBA                     __end_of__initialization:
    62                           	callstack 0
    63  017FBA  0100               	movlb	0
    64  017FBC  EFE0  F0BF         	goto	_main	;jump to C main() function
    65                           
    66                           	psect	cstackCOMRAM
    67  000001                     __pcstackCOMRAM:
    68                           	callstack 0
    69  000001                     ??_main:
    70                           
    71                           ; 1 bytes @ 0x0
    72  000001                     	ds	2
    73                           
    74 ;;
    75 ;;Main: autosize = 0, tempsize = 2, incstack = 0, save=0
    76 ;;
    77 ;; *************** function _main *****************
    78 ;; Defined at:
    79 ;;		line 13 in file "main.c"
    80 ;; Parameters:    Size  Location     Type
    81 ;;		None
    82 ;; Auto vars:     Size  Location     Type
    83 ;;		None
    84 ;; Return value:  Size  Location     Type
    85 ;;                  1    wreg      void 
    86 ;; Registers used:
    87 ;;		wreg
    88 ;; Tracked objects:
    89 ;;		On entry : 0/0
    90 ;;		On exit  : 0/0
    91 ;;		Unchanged: 0/0
    92 ;; Data sizes:     COMRAM   BANK0   BANK1   BANK2   BANK3   BANK4   BANK5   BANK6   BANK7   BANK8   BANK9  BANK10  BANK1
      +1  BANK12
    93 ;;      Params:         0       0       0       0       0       0       0       0       0       0       0       0       
      +0       0
    94 ;;      Locals:         0       0       0       0       0       0       0       0       0       0       0       0       
      +0       0
    95 ;;      Temps:          2       0       0       0       0       0       0       0       0       0       0       0       
      +0       0
    96 ;;      Totals:         2       0       0       0       0       0       0       0       0       0       0       0       
      +0       0
    97 ;;Total ram usage:        2 bytes
    98 ;; This function calls:
    99 ;;		Nothing
   100 ;; This function is called by:
   101 ;;		Startup code after reset
   102 ;; This function uses a non-reentrant model
   103 ;;
   104                           
   105                           	psect	text0
   106  017FC0                     __ptext0:
   107                           	callstack 0
   108  017FC0                     _main:
   109                           	callstack 31
   110  017FC0                     
   111                           ;main.c: 15:     TRISBbits.TRISB0 = 0;
   112  017FC0  9093               	bcf	147,0,c	;volatile
   113                           
   114                           ;main.c: 16:     PORTBbits.RB0 = 0;
   115  017FC2  9081               	bcf	129,0,c	;volatile
   116  017FC4                     l11:
   117                           
   118                           ;main.c: 19:     {;main.c: 20:         PORTBbits.RB0 = 1;
   119  017FC4  8081               	bsf	129,0,c	;volatile
   120  017FC6                     
   121                           ;main.c: 21:         _delay((unsigned long)((1000)*(20000000/4000.0)));
   122  017FC6  0E1A               	movlw	26
   123  017FC8  6E02               	movwf	(??_main+1)^0,c
   124  017FCA  0E5E               	movlw	94
   125  017FCC  6E01               	movwf	??_main^0,c
   126  017FCE  0E6E               	movlw	110
   127  017FD0                     u17:
   128  017FD0  2EE8               	decfsz	wreg,f,c
   129  017FD2  D7FE               	bra	u17
   130  017FD4  2E01               	decfsz	??_main^0,f,c
   131  017FD6  D7FC               	bra	u17
   132  017FD8  2E02               	decfsz	(??_main+1)^0,f,c
   133  017FDA  D7FA               	bra	u17
   134  017FDC  D000               	nop2	
   135  017FDE                     
   136                           ;main.c: 22:         PORTBbits.RB0 = 0;
   137  017FDE  9081               	bcf	129,0,c	;volatile
   138                           
   139                           ;main.c: 23:         _delay((unsigned long)((1000)*(20000000/4000.0)));
   140  017FE0  0E1A               	movlw	26
   141  017FE2  6E02               	movwf	(??_main+1)^0,c
   142  017FE4  0E5E               	movlw	94
   143  017FE6  6E01               	movwf	??_main^0,c
   144  017FE8  0E6E               	movlw	110
   145  017FEA                     u27:
   146  017FEA  2EE8               	decfsz	wreg,f,c
   147  017FEC  D7FE               	bra	u27
   148  017FEE  2E01               	decfsz	??_main^0,f,c
   149  017FF0  D7FC               	bra	u27
   150  017FF2  2E02               	decfsz	(??_main+1)^0,f,c
   151  017FF4  D7FA               	bra	u27
   152  017FF6  D000               	nop2	
   153  017FF8  EFE2  F0BF         	goto	l11
   154  017FFC  EF00  F000         	goto	start
   155  018000                     __end_of_main:
   156                           	callstack 0
   157  0000                     
   158                           	psect	rparam
   159  0000                     
   160                           	psect	idloc
   161                           
   162                           ;Config register IDLOC0 @ 0x200000
   163                           ;	unspecified, using default values
   164  200000                     	org	2097152
   165  200000  FF                 	db	255
   166                           
   167                           ;Config register IDLOC1 @ 0x200001
   168                           ;	unspecified, using default values
   169  200001                     	org	2097153
   170  200001  FF                 	db	255
   171                           
   172                           ;Config register IDLOC2 @ 0x200002
   173                           ;	unspecified, using default values
   174  200002                     	org	2097154
   175  200002  FF                 	db	255
   176                           
   177                           ;Config register IDLOC3 @ 0x200003
   178                           ;	unspecified, using default values
   179  200003                     	org	2097155
   180  200003  FF                 	db	255
   181                           
   182                           ;Config register IDLOC4 @ 0x200004
   183                           ;	unspecified, using default values
   184  200004                     	org	2097156
   185  200004  FF                 	db	255
   186                           
   187                           ;Config register IDLOC5 @ 0x200005
   188                           ;	unspecified, using default values
   189  200005                     	org	2097157
   190  200005  FF                 	db	255
   191                           
   192                           ;Config register IDLOC6 @ 0x200006
   193                           ;	unspecified, using default values
   194  200006                     	org	2097158
   195  200006  FF                 	db	255
   196                           
   197                           ;Config register IDLOC7 @ 0x200007
   198                           ;	unspecified, using default values
   199  200007                     	org	2097159
   200  200007  FF                 	db	255
   201                           
   202                           	psect	config
   203                           
   204                           ; Padding undefined space
   205  300000                     	org	3145728
   206  300000  FF                 	db	255
   207                           
   208                           ;Config register CONFIG1H @ 0x300001
   209                           ;	Oscillator Selection bits
   210                           ;	OSC = HS, HS oscillator
   211                           ;	Fail-Safe Clock Monitor Enable bit
   212                           ;	FCMEN = OFF, Fail-Safe Clock Monitor disabled
   213                           ;	Internal/External Oscillator Switchover bit
   214                           ;	IESO = OFF, Oscillator Switchover mode disabled
   215  300001                     	org	3145729
   216  300001  02                 	db	2
   217                           
   218                           ;Config register CONFIG2L @ 0x300002
   219                           ;	Power-up Timer Enable bit
   220                           ;	PWRT = OFF, PWRT disabled
   221                           ;	Brown-out Reset Enable bits
   222                           ;	BOREN = OFF, Brown-out Reset disabled in hardware and software
   223                           ;	Brown-out Reset Voltage bits
   224                           ;	BORV = 3, VBOR set to 2.1V
   225  300002                     	org	3145730
   226  300002  19                 	db	25
   227                           
   228                           ;Config register CONFIG2H @ 0x300003
   229                           ;	Watchdog Timer Enable bit
   230                           ;	WDT = OFF, WDT disabled (control is placed on the SWDTEN bit)
   231                           ;	Watchdog Timer Postscale Select bits
   232                           ;	WDTPS = 32768, 1:32768
   233  300003                     	org	3145731
   234  300003  1E                 	db	30
   235                           
   236                           ; Padding undefined space
   237  300004                     	org	3145732
   238  300004  FF                 	db	255
   239                           
   240                           ;Config register CONFIG3H @ 0x300005
   241                           ;	PORTB A/D Enable bit
   242                           ;	PBADEN = OFF, PORTB<4:0> pins are configured as digital I/O on Reset
   243                           ;	Low-Power Timer 1 Oscillator Enable bit
   244                           ;	LPT1OSC = OFF, Timer1 configured for higher power operation
   245                           ;	MCLR Pin Enable bit
   246                           ;	MCLRE = OFF, RE3 input pin enabled; MCLR disabled
   247  300005                     	org	3145733
   248  300005  00                 	db	0
   249                           
   250                           ;Config register CONFIG4L @ 0x300006
   251                           ;	Stack Full/Underflow Reset Enable bit
   252                           ;	STVREN = OFF, Stack full/underflow will not cause Reset
   253                           ;	Single-Supply ICSP Enable bit
   254                           ;	LVP = OFF, Single-Supply ICSP disabled
   255                           ;	Boot Block Size Select bits
   256                           ;	BBSIZ = 1024, 1K words (2K bytes) Boot Block
   257                           ;	Extended Instruction Set Enable bit
   258                           ;	XINST = OFF, Instruction set extension and Indexed Addressing mode disabled (Legacy mo
      +                          de)
   259                           ;	Background Debugger Enable bit
   260                           ;	DEBUG = 0x1, unprogrammed default
   261  300006                     	org	3145734
   262  300006  80                 	db	128
   263                           
   264                           ; Padding undefined space
   265  300007                     	org	3145735
   266  300007  FF                 	db	255
   267                           
   268                           ;Config register CONFIG5L @ 0x300008
   269                           ;	Code Protection bit
   270                           ;	CP0 = OFF, Block 0 (000800-003FFFh) not code-protected
   271                           ;	Code Protection bit
   272                           ;	CP1 = OFF, Block 1 (004000-007FFFh) not code-protected
   273                           ;	Code Protection bit
   274                           ;	CP2 = OFF, Block 2 (008000-00BFFFh) not code-protected
   275                           ;	Code Protection bit
   276                           ;	CP3 = OFF, Block 3 (00C000-00FFFFh) not code-protected
   277                           ;	Code Protection bit
   278                           ;	CP4 = OFF, Block 4 (010000-013FFFh) not code-protected
   279                           ;	Code Protection bit
   280                           ;	CP5 = OFF, Block 5 (014000-017FFFh) not code-protected
   281  300008                     	org	3145736
   282  300008  3F                 	db	63
   283                           
   284                           ;Config register CONFIG5H @ 0x300009
   285                           ;	Boot Block Code Protection bit
   286                           ;	CPB = OFF, Boot block (000000-0007FFh) not code-protected
   287                           ;	Data EEPROM Code Protection bit
   288                           ;	CPD = OFF, Data EEPROM not code-protected
   289  300009                     	org	3145737
   290  300009  C0                 	db	192
   291                           
   292                           ;Config register CONFIG6L @ 0x30000A
   293                           ;	Write Protection bit
   294                           ;	WRT0 = OFF, Block 0 (000800-003FFFh) not write-protected
   295                           ;	Write Protection bit
   296                           ;	WRT1 = OFF, Block 1 (004000-007FFFh) not write-protected
   297                           ;	Write Protection bit
   298                           ;	WRT2 = OFF, Block 2 (008000-00BFFFh) not write-protected
   299                           ;	Write Protection bit
   300                           ;	WRT3 = OFF, Block 3 (00C000-00FFFFh) not write-protected
   301                           ;	Write Protection bit
   302                           ;	WRT4 = OFF, Block 4 (010000-013FFFh) not write-protected
   303                           ;	Write Protection bit
   304                           ;	WRT5 = OFF, Block 5 (014000-017FFFh) not write-protected
   305  30000A                     	org	3145738
   306  30000A  3F                 	db	63
   307                           
   308                           ;Config register CONFIG6H @ 0x30000B
   309                           ;	Configuration Register Write Protection bit
   310                           ;	WRTC = OFF, Configuration registers (300000-3000FFh) not write-protected
   311                           ;	Boot Block Write Protection bit
   312                           ;	WRTB = OFF, Boot block (000000-0007FFh) not write-protected
   313                           ;	Data EEPROM Write Protection bit
   314                           ;	WRTD = OFF, Data EEPROM not write-protected
   315  30000B                     	org	3145739
   316  30000B  E0                 	db	224
   317                           
   318                           ;Config register CONFIG7L @ 0x30000C
   319                           ;	Table Read Protection bit
   320                           ;	EBTR0 = OFF, Block 0 (000800-003FFFh) not protected from table reads executed in other
      +                           blocks
   321                           ;	Table Read Protection bit
   322                           ;	EBTR1 = OFF, Block 1 (004000-007FFFh) not protected from table reads executed in other
      +                           blocks
   323                           ;	Table Read Protection bit
   324                           ;	EBTR2 = OFF, Block 2 (008000-00BFFFh) not protected from table reads executed in other
      +                           blocks
   325                           ;	Table Read Protection bit
   326                           ;	EBTR3 = OFF, Block 3 (00C000-00FFFFh) not protected from table reads executed in other
      +                           blocks
   327                           ;	Table Read Protection bit
   328                           ;	EBTR4 = OFF, Block 4 (010000-013FFFh) not protected from table reads executed in other
      +                           blocks
   329                           ;	Table Read Protection bit
   330                           ;	EBTR5 = OFF, Block 5 (014000-017FFFh) not protected from table reads executed in other
      +                           blocks
   331  30000C                     	org	3145740
   332  30000C  3F                 	db	63
   333                           
   334                           ;Config register CONFIG7H @ 0x30000D
   335                           ;	Boot Block Table Read Protection bit
   336                           ;	EBTRB = OFF, Boot block (000000-0007FFh) not protected from table reads executed in ot
      +                          her blocks
   337  30000D                     	org	3145741
   338  30000D  40                 	db	64
   339                           tosu	equ	0xFFF
   340                           tosh	equ	0xFFE
   341                           tosl	equ	0xFFD
   342                           stkptr	equ	0xFFC
   343                           pclatu	equ	0xFFB
   344                           pclath	equ	0xFFA
   345                           pcl	equ	0xFF9
   346                           tblptru	equ	0xFF8
   347                           tblptrh	equ	0xFF7
   348                           tblptrl	equ	0xFF6
   349                           tablat	equ	0xFF5
   350                           prodh	equ	0xFF4
   351                           prodl	equ	0xFF3
   352                           indf0	equ	0xFEF
   353                           postinc0	equ	0xFEE
   354                           postdec0	equ	0xFED
   355                           preinc0	equ	0xFEC
   356                           plusw0	equ	0xFEB
   357                           fsr0h	equ	0xFEA
   358                           fsr0l	equ	0xFE9
   359                           wreg	equ	0xFE8
   360                           indf1	equ	0xFE7
   361                           postinc1	equ	0xFE6
   362                           postdec1	equ	0xFE5
   363                           preinc1	equ	0xFE4
   364                           plusw1	equ	0xFE3
   365                           fsr1h	equ	0xFE2
   366                           fsr1l	equ	0xFE1
   367                           bsr	equ	0xFE0
   368                           indf2	equ	0xFDF
   369                           postinc2	equ	0xFDE
   370                           postdec2	equ	0xFDD
   371                           preinc2	equ	0xFDC
   372                           plusw2	equ	0xFDB
   373                           fsr2h	equ	0xFDA
   374                           fsr2l	equ	0xFD9
   375                           status	equ	0xFD8

Data Sizes:
    Strings     0
    Constant    0
    Data        0
    BSS         0
    Persistent  0
    Stack       0

Auto Spaces:
    Space          Size  Autos    Used
    COMRAM           95      2       2
    BANK0           160      0       0
    BANK1           256      0       0
    BANK2           256      0       0
    BANK3           256      0       0
    BANK4           256      0       0
    BANK5           256      0       0
    BANK6           256      0       0
    BANK7           256      0       0
    BANK8           256      0       0
    BANK9           256      0       0
    BANK10          256      0       0
    BANK11          256      0       0
    BANK12          256      0       0

Pointer List with Targets:

    None.

Critical Paths under _main in COMRAM

    None.

Critical Paths under _main in BANK0

    None.

Critical Paths under _main in BANK1

    None.

Critical Paths under _main in BANK2

    None.

Critical Paths under _main in BANK3

    None.

Critical Paths under _main in BANK4

    None.

Critical Paths under _main in BANK5

    None.

Critical Paths under _main in BANK6

    None.

Critical Paths under _main in BANK7

    None.

Critical Paths under _main in BANK8

    None.

Critical Paths under _main in BANK9

    None.

Critical Paths under _main in BANK10

    None.

Critical Paths under _main in BANK11

    None.

Critical Paths under _main in BANK12

    None.

Call Graph Tables:

 ---------------------------------------------------------------------------------
 (Depth) Function   	        Calls       Base Space   Used Autos Params    Refs
 ---------------------------------------------------------------------------------
 (0) _main                                                 2     2      0       0
                                              0 COMRAM     2     2      0
 ---------------------------------------------------------------------------------
 Estimated maximum stack depth 0
 ---------------------------------------------------------------------------------

 Call Graph Graphs:

 _main (ROOT)

 Address spaces:
Name               Size   Autos  Total    Cost      Usage
BITCOMRAM           5F      0       0       0        0.0%
EEDATA             400      0       0       0        0.0%
NULL                 0      0       0       0        0.0%
CODE                 0      0       0       0        0.0%
COMRAM              5F      2       2       1        2.1%
STACK                0      0       0       2        0.0%
DATA                 0      0       0       3        0.0%
BITBANK0            A0      0       0       4        0.0%
BANK0               A0      0       0       5        0.0%
BITBANK1           100      0       0       6        0.0%
BANK1              100      0       0       7        0.0%
BITBANK2           100      0       0       8        0.0%
BANK2              100      0       0       9        0.0%
BITBANK3           100      0       0      10        0.0%
BANK3              100      0       0      11        0.0%
BITBANK4           100      0       0      12        0.0%
BANK4              100      0       0      13        0.0%
BITBANK5           100      0       0      14        0.0%
BANK5              100      0       0      15        0.0%
BITBANK6           100      0       0      16        0.0%
BANK6              100      0       0      17        0.0%
BITBANK7           100      0       0      18        0.0%
BANK7              100      0       0      19        0.0%
ABS                  0      0       0      20        0.0%
BITBANK8           100      0       0      21        0.0%
BANK8              100      0       0      22        0.0%
BITBANK9           100      0       0      23        0.0%
BANK9              100      0       0      24        0.0%
BITBANK10          100      0       0      25        0.0%
BANK10             100      0       0      26        0.0%
BITBANK11          100      0       0      27        0.0%
BANK11             100      0       0      28        0.0%
BITBANK12          100      0       0      29        0.0%
BANK12             100      0       0      30        0.0%
BIGRAM             CFF      0       0      31        0.0%
BITSFR_3             0      0       0     200        0.0%
SFR_3                0      0       0     200        0.0%
BITSFR_2             0      0       0     200        0.0%
SFR_2                0      0       0     200        0.0%
BITSFR_1             0      0       0     200        0.0%
SFR_1                0      0       0     200        0.0%
BITSFR               0      0       0     200        0.0%
SFR                  0      0       0     200        0.0%


Microchip Technology PIC18 Macro Assembler V2.30 build 20200825195618 
Symbol Table                                                                                   Tue Sep 22 22:34:29 2020

                     l11 7FC4                       u17 7FD0                       u27 7FEA  
                    l690 7FC0                      l692 7FC6                      l694 7FDE  
                    wreg 000FE8                     _main 7FC0                     start 0000  
           ___param_bank 000000                    ?_main 0001          __initialization 7FBA  
           __end_of_main 8000                   ??_main 0001            __activetblptr 000000  
             __accesstop 0060  __end_of__initialization 7FBA            ___rparam_used 000001  
         __pcstackCOMRAM 0001                  __Hparam 0000                  __Lparam 0000  
                __pcinit 7FBA                  __ramtop 0D00                  __ptext0 7FC0  
   end_of_initialization 7FBA                _PORTBbits 000F81                _TRISBbits 000F93  
    start_initialization 7FBA                 __Hrparam 0000                 __Lrparam 0000  
          __size_of_main 0040  
